:0400000077EF7EF028
:10FCCF00800F810F820F830F840F890F8A0F8B0F85
:10FCDF008C0F8D0F920F930F940F950F960F02CFDE
:10FCEF000EF66EFC0EF76E000EF86E00EE01F010C1
:10FCFF00EE1FF00900F5CFEEFFE550E150FAE100FD
:10FD0F000EF86E0001B3EF7EF02A502B10D8A4939B
:10FD1F00EF7EF095EF7EF099EF7EF0000E2C6EB136
:10FD2F00EF7EF02AC020F02BC021F06DEC7FF02C7D
:10FD3F006E2AC020F02BC021F02AC0D9FF2BC0DAC9
:10FD4F00FF000EDFBC010E226EE6EC7EF02C6E0182
:10FD5F000E2C6E2C5012001F0E2A6E000E2B6E8C66
:10FD6F00EC7EF02F6E1F0E206E000E216E010E2204
:10FD7F006EE6EC7EF02F6E060E2E6E130E2D6EAE0F
:10FD8F000EE82EFED72D2EFCD72E2EFAD71F0E20C3
:10FD9F006E000E216E000E226EE6EC7EF02F6E06C8
:10FDAF000E2E6E130E2D6EAE0EE82EFED72D2EFCE0
:10FDBF00D72E2EFAD7BAEF7EF000EF00F0205021A9
:10FDCF0010D8A4EDEF7EF0EFEF7EF056EF7FF056F8
:10FDDF00EF7FF020C0D9FF21C0DAFFDF30E832E833
:10FDEF0032070B236E010E246E232A01EF7FF0D80A
:10FDFF00902436232EFFEF7EF02450FF0A256E202D
:10FE0F00C0D9FF21C0DAFFDF50070B266E26500244
:10FE1F000D0B0EF324D96E000EF420DA6EDECF2711
:10FE2F00F0DDCF28F027C0D9FF28C0DAFF2550DF3B
:10FE3F0016010E296E6BEF7FF020C0D9FF21C0DABB
:10FE4F00FFDF30E832E832070B236E010E246E23FA
:10FE5F002A34EF7FF0D8902436232E32EF7FF02014
:10FE6F00C0D9FF21C0DAFFDF50070B256E255002E6
:10FE7F000D0B0EF324D96E000EF420DA6EDECF26B2
:10FE8F00F0DDCF27F026C0D9FF27C0DAFF2450DFDF
:10FE9F001220EF7FF0000E296E6BEF7FF0225023C0
:10FEAF006E246A2450000AD8B460EF7FF052EF7FBF
:10FEBF00F02350000AD8B4F1EF7EF0010AD8B42431
:10FECF00EF7FF052EF7FF02950120020502110D811
:10FEDF00A474EF7FF076EF7FF0DDEF7FF0DDEF7F43
:10FEEF00F020C0D9FF21C0DAFFDF30E832E8320757
:10FEFF000B226E010E236E222A88EF7FF0D89023FB
:10FF0F0036222E86EF7FF02350FF0A246E20C0D9B1
:10FF1F00FF21C0DAFFDF50070B256E2550020D15AC
:10FF2F000EF324D96E000EF420DA6EDECF26F0DD4C
:10FF3F00CF27F026C0D9FF27C0DAFF2450DF1601E4
:10FF4F000E286EFEEF7FF020C0D9FF21C0DAFFDF51
:10FF5F0030E832E832070B226E010E236E222ABBE5
:10FF6F00EF7FF0D8902336222EB9EF7FF020C0D943
:10FF7F00FF21C0DAFFDF50070B246E2450020D154E
:10FF8F000EF324D96E000EF420DA6EDECF25F0DDED
:10FF9F00CF26F025C0D9FF26C0DAFF2350DF12A7E6
:10FFAF00EF7FF0000E286EFEEF7FF020C0D9FF210B
:10FFBF00C0DAFFDFBEE6EF7FF0E9EF7FF0010EEA78
:10FFCF00EF7FF0000E226E236A2350000AD8B4F39D
:10FFDF00EF7FF0D9EF7FF02250000AD8B478EF7F8F
:10FFEF00F0010AD8B4ABEF7FF0D9EF7FF0285012B1
:01FFFF000001
:020000040020DA
:08000000FFFFFFFFFFFFFFFF00
:020000040030CA
:0E000000FF071F1FFF8385FF0FC00FE00F409B
:00000001FF
