:04000000ADEF7DF0F3
:10FB1E00210E306E000E316EC3EC7DF01F0E306E76
:10FB2E00000E316EC3EC7DF01200800F810F820F3C
:10FB3E00830F840F890F8A0F8B0F8C0F8D0F920FEF
:10FB4E00930F940F950F960F10180008380EF66E3F
:10FB5E00FB0EF76E000EF86E00EE01F010EE22F0C6
:10FB6E000900F5CFEEFFE550E150FAE1356A000EDF
:10FB7E00F86E00016DEF7EF030503110D8A4CAEF50
:10FB8E007DF0CCEF7DF0D0EF7DF0000E326EE0EF29
:10FB9E007DF030C02DF031C02EF0E2EC7DF0010E84
:10FBAE0030242D6E000E31202E6EE2EC7DF0010E13
:10FBBE00326E325012002D502E10D8A4E9EF7DF087
:10FBCE00EBEF7DF0EDEF7DF003EF7EF02DC023F037
:10FBDE002EC024F06DEC7FF02F6E2DC023F02EC0C2
:10FBEE0024F02DC0D9FF2EC0DAFF000EDFBC010EAF
:10FBFE00256EE6EC7EF02F6E12002D502E10D8A43E
:10FC0E000BEF7EF00DEF7EF011EF7EF0000E2F6EFB
:10FC1E0025EF7EF02DC023F02EC024F0000E256EB1
:10FC2E00E6EC7EF0010E2D24236E000E2E20246EA7
:10FC3E00010E256EE6EC7EF0010E2F6E2F50120097
:10FC4E002D502E10D8A42EEF7EF030EF7EF034EF34
:10FC5E007EF0000E2F6E48EF7EF02DC023F02EC0EA
:10FC6E0024F0010E256EE6EC7EF0010E2D24236E9F
:10FC7E00000E2E20246E000E256EE6EC7EF0010E98
:10FC8E002F6E2F5012002D502E10D8A451EF7EF053
:10FC9E0053EF7EF057EF7EF0000E2F6E6BEF7EF07F
:10FCAE002DC023F02EC024F0000E256EE6EC7EF063
:10FCBE00010E2D24236E000E2E20246E000E256EB6
:10FCCE00E6EC7EF0010E2F6E2F5012008FEC7DF0C1
:10FCDE00210E2D6E000E2E6E04EC7EF01F0E2D6E7C
:10FCEE00000E2E6E04EC7EF0100E346E390E336E56
:10FCFE000E0EE82EFED7332EFCD7342EFAD7210E59
:10FD0E002D6E000E2E6E27EC7EF01F0E2D6E000E49
:10FD1E002E6E27EC7EF0100E346E390E336E0E0EF4
:10FD2E00E82EFED7332EFCD7342EFAD7210E2D6EA9
:10FD3E00000E2E6E4AEC7EF01F0E2D6E000E2E6EF5
:10FD4E004AEC7EF0100E346E390E336E0E0EE82E27
:10FD5E00FED7332EFCD7342EFAD7210E2D6E000E81
:10FD6E002E6E27EC7EF01F0E2D6E000E2E6E04EC06
:10FD7E007EF0100E346E390E336E0E0EE82EFED758
:10FD8E00332EFCD7342EFAD71F0E2D6E000E2E6E8C
:10FD9E0027EC7EF0210E2D6E000E2E6E04EC7EF002
:10FDAE00100E346E390E336E0E0EE82EFED7332E35
:10FDBE00FCD7342EFAD76FEF7EF000EF00F0235011
:10FDCE002410D8A4EDEF7EF0EFEF7EF056EF7FF02B
:10FDDE0056EF7FF023C0D9FF24C0DAFFDF30E832C0
:10FDEE00E832070B266E010E276E262A01EF7FF0F2
:10FDFE00D8902736262EFFEF7EF02750FF0A286E6A
:10FE0E0023C0D9FF24C0DAFFDF50070B296E29501B
:10FE1E00020D0B0EF324D96E000EF420DA6EDECF37
:10FE2E002AF0DDCF2BF02AC0D9FF2BC0DAFF2850E5
:10FE3E00DF16010E2C6E6BEF7FF023C0D9FF24C0AE
:10FE4E00DAFFDF30E832E832070B266E010E276E3E
:10FE5E00262A34EF7FF0D8902736262E32EF7FF009
:10FE6E0023C0D9FF24C0DAFFDF50070B286E2850BD
:10FE7E00020D0B0EF324D96E000EF420DA6EDECFD7
:10FE8E0029F0DDCF2AF029C0D9FF2AC0DAFF27508A
:10FE9E00DF1220EF7FF0000E2C6E6BEF7FF02550FF
:10FEAE00266E276A2750000AD8B460EF7FF052EF13
:10FEBE007FF02650000AD8B4F1EF7EF0010AD8B4D4
:10FECE0024EF7FF052EF7FF02C50120023502410BD
:10FEDE00D8A474EF7FF076EF7FF0DDEF7FF0DDEFEB
:10FEEE007FF023C0D9FF24C0DAFFDF30E832E832DA
:10FEFE00070B256E010E266E252A88EF7FF0D8900F
:10FF0E002636252E86EF7FF02650FF0A276E23C059
:10FF1E00D9FF24C0DAFFDF50070B286E2850020DE0
:10FF2E00150EF324D96E000EF420DA6EDECF29F012
:10FF3E00DDCF2AF029C0D9FF2AC0DAFF2750DF16FD
:10FF4E00010E2B6EFEEF7FF023C0D9FF24C0DAFF27
:10FF5E00DF30E832E832070B256E010E266E252AB9
:10FF6E00BBEF7FF0D8902636252EB9EF7FF023C059
:10FF7E00D9FF24C0DAFFDF50070B276E2750020D82
:10FF8E00150EF324D96E000EF420DA6EDECF28F0B3
:10FF9E00DDCF29F028C0D9FF29C0DAFF2650DF12A5
:10FFAE00A7EF7FF0000E2B6EFEEF7FF023C0D9FF80
:10FFBE0024C0DAFFDFBEE6EF7FF0E9EF7FF0010E3F
:10FFCE00EAEF7FF0000E256E266A2650000AD8B49E
:10FFDE00F3EF7FF0D9EF7FF02550000AD8B478EF19
:10FFEE007FF0010AD8B4ABEF7FF0D9EF7FF02B5042
:02FFFE001200EF
:020000040020DA
:08000000FFFFFFFFFFFFFFFF00
:020000040030CA
:0E000000FF071F1FFF8385FF0FC00FE00F409B
:00000001FF
