:04000000D8EF7FF0C6
:10FF9200890F8A0F8B0F8C0F8D0F800F810F820FAD
:10FFA200830F840F920F930F940F950F960F920E5B
:10FFB200F66EFF0EF76E000EF86E00EE01F010EE18
:10FFC2001EF00900F5CFEEFFE550E150FAE1000125
:10FFD200EBEF7FF0000E956E000E946E8B908B828D
:10FFE2000B0E206E260E1F6E5E0EE82EFED71F2E03
:0EFFF200FCD7202EFAD7F00E8B6E00EF00F039
:020000040020DA
:08000000FFFFFFFFFFFFFFFF00
:020000040030CA
:0E000000FF071F1FFF8385FF0FC00FE00F409B
:00000001FF
