:040000000AEF7EF095
:10FBF500890F8A0F8B0F8C0F8D0F800F810F820F4E
:10FC0500830F840F920F930F940F950F960F82F524
:10FC15000EF66EFB0EF76E000EF86E00EE01F0109C
:10FC2500EE1FF00900F5CFEEFFE550E150FAE100D7
:10FC35000192EF7EF0236E2350020D010EF324D9BD
:10FC45006E000EF420DA6EDECF21F0DDCF22F0213A
:10FC5500C0D9FF22C0DAFF20C0DFFF1200226E22CA
:10FC650050020D150EF324D96E000EF420DA6EDE67
:10FC7500CF20F0DDCF21F020C0D9FF21C0DAFFDF92
:10FC85006A2250020D010EF324D96E000EF420DA1B
:10FC95006EDECF20F0DDCF21F020C0D9FF21C0DA04
:10FCA500FFDF6A120020502110D8A45CEF7EF05EC1
:10FCB500EF7EF062EF7EF0000E276E90EF7EF02073
:10FCC500C0D9FF21C0DAFFDF30E832E832070B2266
:10FCD5006E010E236E222A72EF7EF0D89023362213
:10FCE5002E70EF7EF020C0D9FF21C0DAFFDF50076C
:10FCF5000B246E2450020D010EF324D96E000EF470
:10FD050020DA6EDECF25F0DDCF26F025C0D9FF261F
:10FD1500C0DAFF2350DF1A010E276E275012001F8D
:10FD25000E206E000E216E7AEC7FF02C6E030E31E4
:10FD3500EC7EF01F0E206E000E216E010E226EFA73
:10FD4500EC7EF02C6E060E2B6E130E2A6EAE0EE8B0
:10FD55002EFED72A2EFCD72B2EFAD71F0E206E008B
:10FD65000E216E000E226EFAEC7EF02C6E060E2B26
:10FD75006E130E2A6EAE0EE82EFED72A2EFCD72B5A
:10FD85002EFAD71F0E206E000E216E55EC7EF02C3C
:10FD95006E0B0E2B6E260E2A6E5E0EE82EFED72AF1
:10FDA5002EFCD72B2EFAD7FF0E206E030E1DEC7EF0
:10FDB500F00B0E2B6E260E2A6E5E0EE82EFED72A4F
:10FDC5002EFCD72B2EFAD7000E206E030E1DEC7ECF
:10FDD500F00B0E2B6E260E2A6E5E0EE82EFED72A2F
:10FDE5002EFCD72B2EFAD79CEF7EF000EF00F020EB
:10FDF500502110D8A401EF7FF003EF7FF007EF7FCC
:10FE0500F0000E296E78EF7FF02204D8A40DEF7F65
:10FE1500F00FEF7FF03DEF7FF020C0D9FF21C0DA72
:10FE2500FFDF30E832E832070B236E010E246E2324
:10FE35002A1FEF7FF0D8902436232E1DEF7FF02068
:10FE4500C0D9FF21C0DAFFDF50070B256E25500210
:10FE55000D010EF324D96E000EF420DA6EDECF26E6
:10FE6500F0DDCF27F026C0D9FF27C0DAFF2450DF09
:10FE75001276EF7FF02250D8A443EF7FF045EF7F55
:10FE8500F076EF7FF020C0D9FF21C0DAFFDF30E840
:10FE950032E832070B236E010E246E232A55EF7FBD
:10FEA500F0D8902436232E53EF7FF02450FF0A25F7
:10FEB5006E20C0D9FF21C0DAFFDF50070B266E2662
:10FEC50050020D010EF324D96E000EF420DA6EDE19
:10FED500CF27F0DDCF28F027C0D9FF28C0DAFF25CE
:10FEE50050DF1676EF7FF0010E296E2950120020A3
:10FEF500502110D8A481EF7FF083EF7FF087EF7F4B
:10FF0500F0000E286EFEEF7FF020C0D9FF21C0DA89
:10FF1500FFDFBC90EF7FF092EF7FF0C3EF7FF02023
:10FF2500C0D9FF21C0DAFFDF30E832E832070B2203
:10FF35006E010E236E222AA2EF7FF0D8902336227F
:10FF45002EA0EF7FF02350FF0A246E20C0D9FF2199
:10FF5500C0DAFFDF50070B256E2550020D150EF395
:10FF650024D96E000EF420DA6EDECF26F0DDCF2721
:10FF7500F026C0D9FF27C0DAFF2450DF16FCEF7F3B
:10FF8500F020C0D9FF21C0DAFFDFACCCEF7FF0CE87
:10FF9500EF7FF0FCEF7FF020C0D9FF21C0DAFFDF53
:10FFA50030E832E832070B226E010E236E222ADE7C
:10FFB500EF7FF0D8902336222EDCEF7FF020C0D9DA
:10FFC500FF21C0DAFFDF50070B246E2450020D1508
:10FFD5000EF324D96E000EF420DA6EDECF25F0DDA7
:10FFE500CF26F025C0D9FF26C0DAFF2350DF12FC4B
:0BFFF500EF7FF0010E286E2850120074
:020000040020DA
:08000000FFFFFFFFFFFFFFFF00
:020000040030CA
:0E000000FF071F1FFF8385FF0FC00FE00F409B
:00000001FF
