:0400000005EF7DF09B
:10F9B600800F810F820F830F840F890F8A0F8B0FA1
:10F9C6008C0F8D0F920F930F940F950F960F5A521F
:10F9D6004A42220E306E000E316E38EC7EF0210E59
:10F9E600306E000E316E38EC7EF0200E306E000E5A
:10F9F600316E38EC7EF01F0E306E000E316E38EC34
:10FA06007EF01200B60EF66EF90EF76E000EF86E68
:10FA160000EE01F010EE22F00900F5CFEEFFE55002
:10FA2600E150FAE13B6A3A6A396A386A376A000E87
:10FA3600F86E000177EF7EF02D502E10D8A426EF39
:10FA46007DF028EF7DF02CEF7DF0000E2F6E44EF59
:10FA56007DF02DC023F02EC024F06DEC7FF02F6ECC
:10FA66002DC023F02EC024F02DC0D9FF2EC0DAFF02
:10FA7600000EDFBC010E256EE6EC7EF02F6E010E49
:10FA86002F6E2F5012002B502C10D8A44DEF7DF066
:10FA96004FEF7DF051EF7DF080EF7DF037C02EF017
:10FAA6002BC0D9FF2CC0DAFFDF50070B2D6E2E506E
:10FAB6002D18F80B2D182E6E2BC0D9FF2CC0DAFF8F
:10FAC600DF30E832E832070B2D6E2D462D462D46E7
:10FAD6002E502D18C70B2D182E6E2BC0D9FF2CC0FB
:10FAE600DAFFDFAC02D02E8C01D02E9C2E9E2E0E7D
:10FAF600236E000E246E81EC7DF01200235024103C
:10FB0600D8A488EF7DF08AEF7DF08EEF7DF0000EB1
:10FB16002A6EBCEF7DF023C0D9FF24C0DAFFDF30A8
:10FB2600E832E832070B256E010E266E252A9EEF77
:10FB36007DF0D8902636252E9CEF7DF023C0D9FF88
:10FB460024C0DAFFDF50070B276E2750020D0B0E7D
:10FB5600F324D96E000EF420DA6EDECF28F0DDCF66
:10FB660029F028C0D9FF29C0DAFF2650DF1A010E76
:10FB76002A6E2A5012002D502E10D8A4C5EF7DF003
:10FB8600C7EF7DF0C9EF7DF0FAEF7DF038C030F0B9
:10FB96002DC0D9FF2EC0DAFFDF50070B2F6E305075
:10FBA6002F18F80B2F18306E2DC0D9FF2EC0DAFF94
:10FBB600DF30E832E832070B2F6E2F462F462F46EE
:10FBC60030502F18C70B2F18306E2DC0D9FF2EC0FE
:10FBD600DAFFDFAC02D0308C01D0309C309E300E84
:10FBE600236E000E246E000E256EE6EC7EF01200EB
:10FBF6002D502E10D8A402EF7EF004EF7EF006EF13
:10FC06007EF037EF7EF039C030F02DC0D9FF2EC020
:10FC1600DAFFDF50070B2F6E30502F18F80B2F1816
:10FC2600306E2DC0D9FF2EC0DAFFDF30E832E83261
:10FC3600070B2F6E2F462F462F4630502F18C70B17
:10FC46002F18306E2DC0D9FF2EC0DAFFDFAC02D0E0
:10FC5600308C01D0309C309E300E236E000E246E08
:10FC6600010E256EE6EC7EF0120030503110D8A45D
:10FC76003FEF7EF041EF7EF045EF7EF0000E336EF3
:10FC860075EF7EF03AC034F030C0D9FF31C0DAFFEC
:10FC9600DF50070B326E34503218F80B3218346EC0
:10FCA60030C0D9FF31C0DAFFDF30E832E832070B67
:10FCB600326E32463246324634503218C70B32184C
:10FCC600346E30C0D9FF31C0DAFFDFAC02D0348CDD
:10FCD60001D0349C349E340E2D6E000E2E6E1FEC19
:10FCE6007DF0336E33501200ECEC7CF0220E2D6E5C
:10FCF600000E2E6EFBEC7DF0210E2D6E000E2E6E8C
:10FD0600BEEC7DF0200E2D6E000E2E6EBEEC7DF04C
:10FD16001F0E2D6E000E2E6EBEEC7DF0060E366E9C
:10FD2600130E356EAE0EE82EFED7352EFCD7362EC8
:10FD3600FAD7220E2B6E000E2C6E46EC7DF0210EAD
:10FD46002B6E000E2C6E46EC7DF0200E2B6E000EF8
:10FD56002C6E46EC7DF01F0E2B6E000E2C6E46ECC4
:10FD66007DF0060E366E130E356EAE0EE82EFED7FD
:10FD7600352EFCD7362EFAD7220E2D6E000E2E6E9D
:10FD8600BEEC7DF0210E2D6E000E2E6EFBEC7DF08E
:10FD9600200E2B6E000E2C6E46EC7DF01F0E2D6E87
:10FDA600000E2E6EFBEC7DF0060E366E130E356ED3
:10FDB600AE0EE82EFED7352EFCD7362EFAD779EFC3
:10FDC6007EF000EF00F023502410D8A4EDEF7EF073
:10FDD600EFEF7EF056EF7FF056EF7FF023C0D9FFAE
:10FDE60024C0DAFFDF30E832E832070B266E010E58
:10FDF600276E262A01EF7FF0D8902736262EFFEFB2
:10FE06007EF02750FF0A286E23C0D9FF24C0DAFFF0
:10FE1600DF50070B296E2950020D0B0EF324D96E05
:10FE2600000EF420DA6EDECF2AF0DDCF2BF02AC0EA
:10FE3600D9FF2BC0DAFF2850DF16010E2C6E6BEFB0
:10FE46007FF023C0D9FF24C0DAFFDF30E832E83282
:10FE5600070B266E010E276E262A34EF7FF0D89008
:10FE66002736262E32EF7FF023C0D9FF24C0DAFFD3
:10FE7600DF50070B286E2850020D0B0EF324D96EA7
:10FE8600000EF420DA6EDECF29F0DDCF2AF029C08D
:10FE9600D9FF2AC0DAFF2750DF1220EF7FF0000ECD
:10FEA6002C6E6BEF7FF02550266E276A2750000ACE
:10FEB600D8B460EF7FF052EF7FF02650000AD8B436
:10FEC600F1EF7EF0010AD8B424EF7FF052EF7FF015
:10FED6002C50120023502410D8A474EF7FF076EF34
:10FEE6007FF0DDEF7FF0DDEF7FF023C0D9FF24C088
:10FEF600DAFFDF30E832E832070B256E010E266E98
:10FF0600252A88EF7FF0D8902636252E86EF7FF0BB
:10FF16002650FF0A276E23C0D9FF24C0DAFFDF5020
:10FF2600070B286E2850020D150EF324D96E000E0D
:10FF3600F420DA6EDECF29F0DDCF2AF029C0D9FF12
:10FF46002AC0DAFF2750DF16010E2B6EFEEF7FF078
:10FF560023C0D9FF24C0DAFFDF30E832E832070BCE
:10FF6600256E010E266E252ABBEF7FF0D890263629
:10FF7600252EB9EF7FF023C0D9FF24C0DAFFDF506A
:10FF8600070B276E2750020D150EF324D96E000EAF
:10FF9600F420DA6EDECF28F0DDCF29F028C0D9FFB5
:10FFA60029C0DAFF2650DF12A7EF7FF0000E2B6E76
:10FFB600FEEF7FF023C0D9FF24C0DAFFDFBEE6EFF5
:10FFC6007FF0E9EF7FF0010EEAEF7FF0000E256E7D
:10FFD600266A2650000AD8B4F3EF7FF0D9EF7FF0F7
:10FFE6002550000AD8B478EF7FF0010AD8B4ABEFF9
:0AFFF6007FF0D9EF7FF02B501200CE
:020000040020DA
:08000000FFFFFFFFFFFFFFFF00
:020000040030CA
:0E000000FF071F1FFF8385FF0FC00FE00F409B
:00000001FF
