:040000007EEF7EF021
:10FC62003450D8A402D0000E04D034C02DF095EC4C
:10FC72007FF0356E35501200270E346E31EC7EF077
:10FC8200240E346E31EC7EF02C0E356E64EC7EF078
:10FC92002B0E356E64EC7EF01200800F810F820F06
:10FCA200830F840F890F8A0F8B0F8C0F8D0F920F8A
:10FCB200930F940F950F960F0100010001CB0100E5
:10FCC200830101010A023550D8A402D0000E12D0DD
:10FCD20035C02DF095EC7FF0366E35C02DF03550E5
:10FCE200D96EDA6A000EDFBC010E2E6E31EC7FF0A7
:10FCF200366E010E366E365012009C0EF66EFC0EFB
:10FD0200F76E000EF86E00EE01F010EE2CF0090016
:10FD1200F5CFEEFFE550E150FAE13C6A3B6A3A6A00
:10FD2200396A386A000EF86E0001C7EF7EF02D5076
:10FD3200D8B412002E50D8B412002E50D96EDA6AFE
:10FD42002D50E16EE26AE730E832E832070B2F6E9F
:10FD52002D50E16EE26AE750070B020DF350010FDE
:10FD6200E16EE26AE6CF30F0E5CF31F030C0E1FF7C
:10FD720031C0E2FFE750326E2F2A02D0D8903232E1
:10FD82002F2EFCD73250010BDF6E12003DEC7EF0BD
:10FD9200270E346E31EC7EF0270E336E2A0E346E4F
:10FDA200FBEC7EF02A50D8A40CD0384A392AF50E42
:10FDB200385C010E3958D8A00CD0000E226E000E0D
:10FDC20007D0000E396E000E386E000E226E010E44
:10FDD200216E1F50211804E120502218D8B4DCD71C
:10FDE20021C01FF022C020F021502210D8A4D4D765
:10FDF2003A2AD2D7000E376E3350D8B403D03450DB
:10FE0200D8A402D0000E29D033C02DF0370E2E6EAA
:10FE120098EC7EF03350D96EDA6A020ED926DE04EF
:10FE2200D8A40ED03704D8A405D03450D96EDA6ADB
:10FE3200DF6A12D03450D96EDA6A010EDF6E0CD04E
:10FE42003350D96EDA6A020ED926DF50D8A404D014
:10FE52003704D8B4EFD7E9D7010E366E3650120008
:10FE62002D5051D02D50D96EDA6ADF30E832E832A7
:10FE7200070B2F6E010E306E2F2A02D0D89030362B
:10FE82002F2EFCD73050FF0A316E2D50D96EDA6A10
:10FE9200DF50070B020DF3500B0FD96EDA6ADECF7B
:10FEA20032F0DDCF33F032C0D9FF33C0DAFF315048
:10FEB200DF16010E26D02D50D96EDA6ADF30E83215
:10FEC200E832070B2F6E010E306E2F2A02D0D89027
:10FED20030362F2EFCD72D50D96EDA6ADF50070B41
:10FEE200020DF3500B0FD96EDA6ADECF31F0DDCF9F
:10FEF20032F031C0D9FF32C0DAFF3050DF12D9D729
:10FF0200000E346E0FD02E502F6E306A3050000A21
:10FF1200D8A4F6D72F50000AD8B4A4D7010AD8B46F
:10FF2200CAD7EED7345012002D5051D02D50D96E71
:10FF3200DA6ADF30E832E832070B2E6E010E2F6EDE
:10FF42002E2A02D0D8902F362E2EFCD72F50FF0A01
:10FF5200306E2D50D96EDA6ADF50070B020DF35066
:10FF6200150FD96EDA6ADECF31F0DDCF32F031C053
:10FF7200D9FF32C0DAFF3050DF16010E26D02D50E5
:10FF8200D96EDA6ADF30E832E832070B2E6E010EE4
:10FF92002F6E2E2A02D0D8902F362E2EFCD72D501F
:10FFA200D96EDA6ADF50070B020DF350150FD96EC6
:10FFB200DA6ADECF30F0DDCF31F030C0D9FF31C0A8
:10FFC200DAFF2F50DF12D9D7000E336E16D02D5024
:10FFD200D96EDA6ADFAE02D0010E01D0000E2E6EAB
:10FFE2002F6A2F50000AD8A4EFD72E50000AD8B497
:0EFFF2009DD7010AD8B4C3D7E7D73350120009
:020000040020DA
:08000000FFFFFFFFFFFFFFFF00
:020000040030CA
:0E000000FF071F1FFF8385FF0FC00FE00F409B
:00000001FF
