:04000000AAEF7CF0F7
:10F95400C00EF66EF90EF76E000EF86E00EE01F0B2
:10F9640010EE3CF00900F5CFEEFFE550E150FAE16E
:10F97400506A4F6A4E6A000EF86E000181EF7EF005
:10F98400406E040E4064C9EF7CF0CBEF7CF0CDEF09
:10F994007CF0DFEF7CF04050020D1F0EF324D96E93
:10F9A400000EF420DA6EDECF3EF0DDCF3FF03EC035
:10F9B400D9FF3FC0DAFF3DC0DFFF12003F065B4FB7
:10F9C400666D7D077F6FC0F9A4B0999282F880902C
:10F9D400800F810F820F830F840F890F8A0F8B0F83
:10F9E4008C0F8D0F920F930F940F950F960F050D9B
:10F9F4000B3B32020A121A01416E040E416405EFF8
:10FA04007DF007EF7DF00BEF7DF0000E406E1FEFF1
:10FA14007DF04150020D290EF324D96E000EF4201E
:10FA2400DA6EDECF3EF0DDCF3FF03EC0D9FF3FC0FF
:10FA3400DAFF3DC0DFFF010E406E40501200475018
:10FA44004810D8A428EF7DF02AEF7DF02EEF7DF04A
:10FA5400000E496E46EF7DF047C03DF048C03EF0D1
:10FA64006DEC7FF0496E47C03DF048C03EF047C0A2
:10FA7400D9FF48C0DAFF000EDFBC010E3F6EE6EC92
:10FA84007EF0496E010E496E495012004A504B10E7
:10FA9400D8A44FEF7DF051EF7DF055EF7DF0000ECF
:10FAA4004C6E79EF7DF04AC047F04BC048F021EC32
:10FAB4007DF04C6E010E4A24476E000E4B20486EBA
:10FAC40021EC7DF04C6E020E4A24476E000E4B2052
:10FAD400486E21EC7DF04C6E030E4A24476E000EF6
:10FAE4004B20486E21EC7DF04C6E010E4C6E4C5058
:10FAF400120047504810D8A482EF7DF084EF7DF0C7
:10FB040090EF7DF0090E49648AEF7DF08CEF7DF073
:10FB140090EF7DF0000E4A6EC5EF7DF047C03DF0DA
:10FB240048C03EF04950010B3F6EE6EC7EF04A6E51
:10FB3400010E47243D6E000E48203E6ED890493099
:10FB4400010B3F6EE6EC7EF04A6E020E47243D6EDA
:10FB5400000E48203E6E4940E8423F0B010B3F6EC9
:10FB6400E6EC7EF04A6E030E47243D6E000E4820FC
:10FB74003E6E4938E8461F0B010B3F6EE6EC7EF003
:10FB84004A6E010E4A6E4A501200000E426E3EBE8C
:10FB9400D0EF7DF0CEEF7DF0D6EF7DF03D6C3E1ED4
:10FBA400D8B03E2A010E426E40BEDDEF7DF0DBEFA1
:10FBB4007DF0E1EF7DF03F6C401ED8B0402A3F500D
:10FBC4004010D8B4E8EF7DF0EAEF7DF00EEF7EF060
:10FBD400010E416EF2EF7DF0D8903F364036412A57
:10FBE40040AEF7EF7DF0F9EF7DF0EEEF7DF03F50A2
:10FBF4003D5C40503E58D8A002EF7EF004EF7EF00A
:10FC040008EF7EF03F503D5E40503E5AD89040325F
:10FC14003F32412EF9EF7DF04250D8B414EF7EF01C
:10FC240016EF7EF01AEF7EF03D6C3E1ED8B03E2AF1
:10FC34003DC03DF03EC03EF01200000E426E40BE9C
:10FC440028EF7EF026EF7EF02EEF7EF03F6C401E14
:10FC5400D8B0402A010E426E3EBE35EF7EF033EF3F
:10FC64007EF03BEF7EF03D6C3E1ED8B03E2A010E86
:10FC7400421A000E446E000E436E3F504010D8B43A
:10FC840046EF7EF048EF7EF070EF7EF0010E416E9D
:10FC940050EF7EF0D8903F364036412A40AE55EFC3
:10FCA4007EF057EF7EF04CEF7EF0D890433644362A
:10FCB4003F503D5C40503E58D8A063EF7EF065EF66
:10FCC4007EF06AEF7EF03F503D5E40503E5A4380E6
:10FCD400D89040323F32412E57EF7EF04250D8B494
:10FCE40076EF7EF078EF7EF07CEF7EF0436C441E7E
:10FCF400D8B0442A43C03DF044C03EF01200380E50
:10FD04004A6E000E4B6E48EC7DF0000E3D6E030E05
:10FD1400FEEC7CF0000E516E000E506E010E3D6E36
:10FD2400030EC2EC7CF051C03DF03E6A000E406E02
:10FD34000A0E3F6E1FEC7EF03D504F6E380E476E3C
:10FD4400000E486E4FC049F07BEC7DF01A0E4D6EEC
:10FD5400F80EE82EFED74D2EFCD700D0020E3D6ED5
:10FD6400030EC2EC7CF051C03DF03E6A000E406EC2
:10FD74000A0E3F6EC7EC7DF03D504E6E380E476E56
:10FD8400000E486E4EC049F07BEC7DF01A0E4D6EAD
:10FD9400F80EE82EFED74D2EFCD700D0502A630E65
:10FDA4005064D7EF7EF0D9EF7EF090EF7EF0512AC9
:10FDB400630E5164E0EF7EF0E2EF7EF08EEF7EF0B2
:10FDC4008CEF7EF000EF00F03D503E10D8A4EDEF34
:10FDD4007EF0EFEF7EF056EF7FF056EF7FF03DC000
:10FDE400D9FF3EC0DAFFDF30E832E832070B406E5D
:10FDF400010E416E402A01EF7FF0D8904136402E2B
:10FE0400FFEF7EF04150FF0A426E3DC0D9FF3EC075
:10FE1400DAFFDF50070B436E4350020D1F0EF3242D
:10FE2400D96E000EF420DA6EDECF44F0DDCF45F05B
:10FE340044C0D9FF45C0DAFF4250DF16010E466EBA
:10FE44006BEF7FF03DC0D9FF3EC0DAFFDF30E83210
:10FE5400E832070B406E010E416E402A34EF7FF00A
:10FE6400D8904136402E32EF7FF03DC0D9FF3EC0DE
:10FE7400DAFFDF50070B426E4250020D1F0EF324CF
:10FE8400D96E000EF420DA6EDECF43F0DDCF44F0FD
:10FE940043C0D9FF44C0DAFF4150DF1220EF7FF0A6
:10FEA400000E466E6BEF7FF03F50406E416A41504A
:10FEB400000AD8B460EF7FF052EF7FF04050000AA0
:10FEC400D8B4F1EF7EF0010AD8B424EF7FF052EFFA
:10FED4007FF0465012003D503E10D8A474EF7FF0DE
:10FEE40076EF7FF0DDEF7FF0DDEF7FF03DC0D9FFEF
:10FEF4003EC0DAFFDF30E832E832070B3F6E010E16
:10FF0400406E3F2A88EF7FF0D89040363F2E86EF30
:10FF14007FF04050FF0A416E3DC0D9FF3EC0DAFF7A
:10FF2400DF50070B426E4250020D290EF324D96EA6
:10FF3400000EF420DA6EDECF43F0DDCF44F043C090
:10FF4400D9FF44C0DAFF4150DF16010E456EFEEFC3
:10FF54007FF03DC0D9FF3EC0DAFFDF30E832E8323F
:10FF6400070B3F6E010E406E3F2ABBEF7FF0D89027
:10FF740040363F2EB9EF7FF03DC0D9FF3EC0DAFFD7
:10FF8400DF50070B416E4150020D290EF324D96E48
:10FF9400000EF420DA6EDECF42F0DDCF43F042C033
:10FFA400D9FF43C0DAFF4050DF12A7EF7FF0000E05
:10FFB400456EFEEF7FF03DC0D9FF3EC0DAFFDFBEE5
:10FFC400E6EF7FF0E9EF7FF0010EEAEF7FF0000E3D
:10FFD4003F6E406A4050000AD8B4F3EF7FF0D9EF87
:10FFE4007FF03F50000AD8B478EF7FF0010AD8B40C
:0CFFF400ABEF7FF0D9EF7FF0455012001A
:020000040020DA
:08000000FFFFFFFFFFFFFFFF00
:020000040030CA
:0E000000FF071F1FFF8385FF0FC00FE00F409B
:00000001FF
