:04000000B7EF7DF0E9
:10FB4F00800F810F820F830F840F890F8A0F8B0F06
:10FB5F008C0F8D0F920F930F940F950F960F024FDF
:10FB6F000EF66EFB0EF76E000EF86E00EE01F01043
:10FB7F00EE1FF00900F5CFEEFFE550E150FAE13648
:10FB8F006A356A346A000EF86E0001F6EF7DF02ACE
:10FB9F00502B10D8A4D6EF7DF0D8EF7DF0DCEF7DA1
:10FBAF00F0000E2C6EF4EF7DF02AC020F02BC02158
:10FBBF00F06DEC7FF02C6E2AC020F02BC021F02AC4
:10FBCF00C0D9FF2BC0DAFF000EDFBC010E226EE69C
:10FBDF00EC7EF02C6E010E2C6E2C5012001F0E2D91
:10FBEF006E000E2E6E22EC7EF01F0E2A6E000E2B74
:10FBFF006EA4EC7EF0330E336EBB0E326EE00EE869
:10FC0F002EFED7322EFCD7332EFAD71F0E2A6E00B8
:10FC1F000E2B6E62EC7EF0330E336EBB0E326EE047
:10FC2F000EE82EFED7322EFCD7332EFAD7FCEF7DFF
:10FC3F00F000EF00F02D502E10D8A429EF7EF02BFE
:10FC4F00EF7EF02FEF7EF0000E306E60EF7EF0361D
:10FC5F00C031F02DC0D9FF2EC0DAFFDF50070B2FB8
:10FC6F006E31502F18F80B2F18316E2DC0D9FF2E73
:10FC7F00C0DAFFDF30E832E832070B2F6E2F462F46
:10FC8F00462F4631502F18C70B2F18316E2DC0D964
:10FC9F00FF2EC0DAFFDFAC02D0318C01D0319C31A6
:10FCAF009E310E2A6E000E2B6ECFEC7DF0010E30C2
:10FCBF006E305012002A502B10D8A469EF7EF06BD3
:10FCCF00EF7EF06FEF7EF0000E2D6EA2EF7EF03420
:10FCDF00C02EF02AC0D9FF2BC0DAFFDF50070B2C44
:10FCEF006E2E502C18F80B2C182E6E2AC0D9FF2B05
:10FCFF00C0DAFFDF30E832E832070B2C6E2C462CCF
:10FD0F00462C462E502C18C70B2C182E6E2AC0D9F5
:10FD1F00FF2BC0DAFFDFAC02D02E8C01D02E9C2E31
:10FD2F009E2E0E206E000E216E000E226EE6EC7ED1
:10FD3F00F0010E2D6E2D5012002A502B10D8A4ABAF
:10FD4F00EF7EF0ADEF7EF0B1EF7EF0000E2D6EE4A2
:10FD5F00EF7EF035C02EF02AC0D9FF2BC0DAFFDFBF
:10FD6F0050070B2C6E2E502C18F80B2C182E6E2AB9
:10FD7F00C0D9FF2BC0DAFFDF30E832E832070B2C97
:10FD8F006E2C462C462C462E502C18C70B2C182E9A
:10FD9F006E2AC0D9FF2BC0DAFFDFAC02D02E8C0148
:10FDAF00D02E9C2E9E2E0E206E000E216E010E2246
:10FDBF006EE6EC7EF0010E2D6E2D501200205021BC
:10FDCF0010D8A4EDEF7EF0EFEF7EF056EF7FF056F8
:10FDDF00EF7FF020C0D9FF21C0DAFFDF30E832E833
:10FDEF0032070B236E010E246E232A01EF7FF0D80A
:10FDFF00902436232EFFEF7EF02450FF0A256E202D
:10FE0F00C0D9FF21C0DAFFDF50070B266E26500244
:10FE1F000D0B0EF324D96E000EF420DA6EDECF2711
:10FE2F00F0DDCF28F027C0D9FF28C0DAFF2550DF3B
:10FE3F0016010E296E6BEF7FF020C0D9FF21C0DABB
:10FE4F00FFDF30E832E832070B236E010E246E23FA
:10FE5F002A34EF7FF0D8902436232E32EF7FF02014
:10FE6F00C0D9FF21C0DAFFDF50070B256E255002E6
:10FE7F000D0B0EF324D96E000EF420DA6EDECF26B2
:10FE8F00F0DDCF27F026C0D9FF27C0DAFF2450DFDF
:10FE9F001220EF7FF0000E296E6BEF7FF0225023C0
:10FEAF006E246A2450000AD8B460EF7FF052EF7FBF
:10FEBF00F02350000AD8B4F1EF7EF0010AD8B42431
:10FECF00EF7FF052EF7FF02950120020502110D811
:10FEDF00A474EF7FF076EF7FF0DDEF7FF0DDEF7F43
:10FEEF00F020C0D9FF21C0DAFFDF30E832E8320757
:10FEFF000B226E010E236E222A88EF7FF0D89023FB
:10FF0F0036222E86EF7FF02350FF0A246E20C0D9B1
:10FF1F00FF21C0DAFFDF50070B256E2550020D15AC
:10FF2F000EF324D96E000EF420DA6EDECF26F0DD4C
:10FF3F00CF27F026C0D9FF27C0DAFF2450DF1601E4
:10FF4F000E286EFEEF7FF020C0D9FF21C0DAFFDF51
:10FF5F0030E832E832070B226E010E236E222ABBE5
:10FF6F00EF7FF0D8902336222EB9EF7FF020C0D943
:10FF7F00FF21C0DAFFDF50070B246E2450020D154E
:10FF8F000EF324D96E000EF420DA6EDECF25F0DDED
:10FF9F00CF26F025C0D9FF26C0DAFF2350DF12A7E6
:10FFAF00EF7FF0000E286EFEEF7FF020C0D9FF210B
:10FFBF00C0DAFFDFBEE6EF7FF0E9EF7FF0010EEA78
:10FFCF00EF7FF0000E226E236A2350000AD8B4F39D
:10FFDF00EF7FF0D9EF7FF02250000AD8B478EF7F8F
:10FFEF00F0010AD8B4ABEF7FF0D9EF7FF0285012B1
:01FFFF000001
:020000040020DA
:08000000FFFFFFFFFFFFFFFF00
:020000040030CA
:0E000000FF071F1FFF8385FF0FC00FE00F409B
:00000001FF
